:0400000080317E28A5
:100008007E1480314101161E0A280B2813280C1E65
:100018000E280F28132882312B2280317C28171FA5
:10002800162817287C280D1F1A281B287C28F93029
:1000380046018D0030308C0041010D134001250828
:100048000319272828287928280803192C282D2857
:100058003A282708F0002408073C890A3428F03693
:10006800890B332870080139F10046282608F0006A
:100078007A08073C890A4128F036890B402870081D
:100088000139F1002308031D4A284B285828710814
:1000980003194F2851280130522800304A01900096
:1000A80001304001A3007C284A011009900040015A
:1000B800A30128080319612862286E280130A407C3
:1000C80008302402031C69286A287C28A401A80196
:1000D800FA017C280130FA0708307A02031C7528D7
:1000E80076287C28FA01A5017C284A0190017C2801
:1000F8007E10090080318028823125228031A600B7
:10010800823126228031A700823127228031A8003F
:10011800FA01FB01FC01A001A101A201A301A401B4
:10012800A5017E1040018131302900000000000047
:1001380000000000460114284001000000000000F3
:10014800000000000000000000000E1DE008000E86
:1001580000000000000000000000000000000A008D
:1001680040190A28000000000000000000000000FC
:100178000000000000000000000000000000000077
:100188000000000000000000000000000000000067
:100198000000000000000000000000000000000057
:1001A8000000000000000000000000000000000047
:1001B8000000000000000000000000000000000037
:1001C8000000000000000000000000000000000027
:1001D800000000000500E1031F3CE1031F3CF001A3
:1001E8001F3EE0031F3EE1031F3C400000000000EB
:1001F8000000003800004001980199019A01373049
:100208009200F0309300FE30940037307D018C006E
:10021800F0309600FE30A0008D019701A1018E01FB
:100228009801A20137308F00F0309900FE30A3000A
:100238003F309000F0309A00FE30A40024307B015B
:100248009C007D019101920193019B019C019D01FC
:10025800A501A601A70108008131DB218131813187
:10026800C42181314A01900129304001AA00963009
:10027800A9007F30890B3E29A90B3E29AA0B3E29EC
:10028800B2304001A6000130A800A401FA010130F3
:10029800A5003D304001AA00E130A9003F30890B9C
:1002A8005329A90B5329AA0B532900323829803125
:1002B8007E287901A5010730A6000730A700250888
:1002C800F3390838A500A401A301A201D530A10083
:1002D800F330A505A401A301A201A101A0019F017A
:1002E8009E019D01FF309700FF3096009401930115
:1002F8009A0141018D1097100D1117117901A5016F
:100308001030920008007608663EF8000030773D0D
:10031800F9007708F3007608F2007908F500780804
:10032800F4008131F9218131823117228131823102
:100338001C228131003A031DA229A3299B2982315D
:100348001222813108004A018C139930F6000030DE
:10035800F70081318721813106304A0195009901E2
:10036800980197019601410113101D1093109D10DB
:1003780013111D1193119D1180304A018C00080042
:1003880040011A1014107D0120100430460191001C
:10039800CF308E058E1441010D1317170B178B17CD
:1003A800F93046018D0030308C000E14080082317F
:1003B800032281318131A72181318031FF208131B0
:1003C80081315D2181318231212281318131EE21DA
:1003D8008131080041010C100B140030F20000308C
:1003E800F30082310C2281310800750879019700E9
:1003F800740896007308940072089300080060302F
:1004080045018D008F01910105309300920108008C
:1004180073084001A1007208A000080079011910B2
:100428001213921308007901921719141217080071
:100438007901120E890C0139080082312822823193
:100448000800B234FF340134790190110800080023
:020000040001F9
:0A000E00EC3F3F3F9F3FFF3FFF3FE5
:00000001FF
